:100000000C9462000C948A000C948A000C948A0070
:100010000C948A000C948A000C948A000C948A0038
:100020000C948A000C948A000C948A000C948A0028
:100030000C948A000C948A000C948A000C948A0018
:100040000C9469030C948A000C94D9030C94B303A8
:100050000C948A000C948A000C948A000C948A00F8
:100060000C948A000C948A000000000023002600F3
:10007000290000000000240027002A0000000000E2
:10008000250028002B0004040404040404040202D4
:100090000202020203030303030301020408102007
:1000A0004080010204081020010204081020000012
:1000B0000008000201000003040700000000000027
:1000C00000002D0711241FBECFEFD8E0DEBFCDBF4B
:1000D00012E0A0E0B1E0E0E3F1E102C005900D9292
:1000E000A236B107D9F723E0A2E6B2E001C01D9223
:1000F000A23FB207E1F710E0C2E6D0E004C02197CA
:10010000FE010E947508C136D107C9F70E940B0491
:100110000C9496080C94000080910E0190910F01B0
:10012000E6EEF3E0918380839383828395838483D7
:100130009783868391878087938782870895E6EEE9
:10014000F3E01182108213821282158214821782C8
:10015000168211861086138612860895833081F0E8
:1001600028F4813099F08230A9F008958730A9F001
:100170008830C9F08430B1F4809180008F7D03C055
:10018000809180008F7780938000089584B58F7769
:1001900084BD089584B58F7DFBCF8091B0008F77AB
:1001A0008093B00008958091B0008F7DF9CF1F93A8
:1001B000CF93DF93282F30E0F901E255FF4F849170
:1001C000F901E656FF4FD491F901EA57FF4FC49168
:1001D000CC23A9F0162F81110E94AE00EC2FF0E085
:1001E000EE0FFF1FE458FF4FA591B4918FB7F8941D
:1001F000EC91111108C0D095DE23DC938FBFDF9105
:10020000CF911F910895DE2BF8CFCF93DF9390E02D
:10021000FC01E656FF4F24918A579F4FFC018491C1
:100220008823D1F090E0880F991FFC01EE58FF4F12
:10023000A591B491FC01E458FF4FC591D49162306F
:1002400071F49FB7F8943C91822F809583238C930F
:10025000E8812E2B28839FBFDF91CF9108958FB720
:10026000F894EC912E2B2C938FBFF6CFCF92DF9288
:10027000EF92FF920F931F93CF93DF9386EEE82EBA
:1002800083E0F82E90E1C92E91E0D92EF701C191BB
:10029000D1917F01F601019111916F0161E0802FF1
:1002A0000E940501209729F460E0802F0E94D7006A
:1002B00029C0CF3FD10511F461E0F7CFF801FF2746
:1002C000E255FF4FE491E33089F140F4E130B1F0C1
:1002D000E23039F1C038D1057CF7E6CFE73081F163
:1002E000E830B1F1E430B1F7809180008062809312
:1002F0008000D0938B00C0938A0004C084B58068CE
:1003000084BDC7BD82EFE81683E0F80609F0BECFD2
:10031000DF91CF911F910F91FF90EF90DF90CF90E1
:10032000089584B5806284BDC8BDECCF8091800003
:10033000806880938000D0938900C0938800E2CFCA
:100340008091B00080688093B000C093B300DACF92
:100350008091B00080628093B000C093B400D2CF8F
:100360008E3008F08E508770806480937C0080917E
:100370007A00806480937A0080917A0086FDFCCFB9
:10038000809178009091790008953FB7F89480911A
:10039000E2039091E303A091E403B091E50326B555
:1003A000A89B05C02F3F19F00196A11DB11D3FBFAD
:1003B000BA2FA92F982F8827BC01CD01620F711D7C
:1003C000811D911D42E0660F771F881F991F4A9576
:1003D000D1F70895AF92BF92CF92DF92EF92FF9242
:1003E0000F931F93CF93DF936C017B018B01040F5D
:1003F000151FEB015E01AE18BF08C017D10759F0F9
:100400006991D601ED91FC910190F081E02DC6013A
:100410000995892B79F7C501DF91CF911F910F9134
:10042000FF90EF90DF90CF90BF90AF900895FC01C8
:10043000538D448D252F30E0842F90E0821B930B49
:10044000541710F0CF96089501970895FC01918DEF
:10045000828D981761F0A28DAE0FBF2FB11D5D96F2
:100460008C91928D9F5F9F73928F90E008958FEF94
:100470009FEF0895FC01918D828D981731F0828D48
:10048000E80FF11D858D90E008958FEF9FEF08959F
:10049000FC01918D228D892F90E0805C9F4F821B03
:1004A00091098F739927089582E692E00E9448028D
:1004B00021E0892B09F420E0822F089580E090E06C
:1004C000892B29F00E94540281110C940000089598
:1004D000FC01A48DA80FB92FB11DA35ABF4F2C91B9
:1004E000848D90E001968F739927848FA689B789B0
:1004F0002C93A089B1898C91837080648C93938DA7
:10050000848D981306C00288F389E02D80818F7D49
:1005100080830895EF92FF920F931F93CF93DF9301
:10052000EC0181E0888F9B8D8C8D98131AC0E8892F
:10053000F989808185FF15C09FB7F894EE89FF89FE
:100540006083E889F98980818370806480839FBF9C
:1005500081E090E0DF91CF911F910F91FF90EF909C
:100560000895F62E0B8D10E00F5F1F4F0F731127AC
:10057000E02E8C8D8E110CC00FB607FCFACFE889E7
:10058000F989808185FFF5CFCE010E946802F1CF05
:10059000EB8DEC0FFD2FF11DE35AFF4FF0829FB75B
:1005A000F8940B8FEA89FB8980818062CFCFCF934B
:1005B000DF93EC01888D8823B9F0AA89BB89E8898B
:1005C000F9898C9185FD03C0808186FD0DC00FB631
:1005D00007FCF7CF8C9185FFF2CF808185FFEDCFAF
:1005E000CE010E946802E9CFDF91CF910895CF93A9
:1005F000DF93D62FC42F806B682F82E692E00E9493
:100600008A026D2F82E692E00E948A026C2F82E6B7
:1006100092E0DF91CF910C948A02E091B303F091C4
:10062000B403E630F1055CF4EE0FFF1FEA51FC4F16
:1006300080910E0190910F019183808308953697E8
:10064000EA30F105D0F4E55DFC4F80910E01909108
:100650000F010C94750835033E034303480351030F
:100660004D0356035B03640360039093E703809399
:10067000E6039093F1038093F00308959093E903C8
:100680008093E803F6CF9093EB038093EA03F1CFD6
:100690009093ED038093EC03ECCF9093E70380936A
:1006A000E6039093EF038093EE03E3CF9093E90387
:1006B0008093E803F6CF9093EB038093EA03F1CFA6
:1006C0009093E7038093E6039093ED038093EC030C
:1006D000E8CF1F920F920FB60F9211242F933F93E2
:1006E0008F939F93AF93BF938091DE039091DF032D
:1006F000A091E003B091E1033091DD0323E0230FEB
:100700002D3758F50196A11DB11D2093DD0380936F
:10071000DE039093DF03A093E003B093E1038091A5
:10072000E2039091E303A091E403B091E503019605
:10073000A11DB11D8093E2039093E303A093E40312
:10074000B093E503BF91AF919F918F913F912F910E
:100750000F900FBE0F901F90189526E8230F02965A
:10076000A11DB11DD2CF1F920F920FB60F9211246F
:100770002F933F934F935F936F937F938F939F93A9
:10078000AF93BF93EF93FF9382E692E00E946802DB
:10079000FF91EF91BF91AF919F918F917F916F9159
:1007A0005F914F913F912F910F900FBE0F901F902F
:1007B00018951F920F920FB60F9211242F938F93BB
:1007C0009F93EF93FF93E0917202F0917302808107
:1007D000E0917802F091790282FD1BC090818091B6
:1007E0007B028F5F8F7320917C02821741F0E09132
:1007F0007B02F0E0EE59FD4F958F80937B02FF91D5
:10080000EF919F918F912F910F900FBE0F901F909E
:1008100018958081F4CFCF93DF93CDB7DEB72A97B9
:100820000FB6F894DEBF0FBECDBF789484B582605A
:1008300084BD84B5816084BD85B5826085BD85B584
:10084000816085BD80916E00816080936E00109202
:10085000810080918100826080938100809181007D
:10086000816080938100809180008160809380000E
:100870008091B10084608093B1008091B00081606C
:100880008093B00080917A00846080937A00809198
:100890007A00826080937A0080917A0081608093F0
:1008A0007A0080917A00806880937A001092C1006B
:1008B000E0917202F091730282E08083E0916E0217
:1008C000F0916F021082E0917002F09171028FE35B
:1008D000808310927A02E0917602F091770286E0AE
:1008E0008083E0917402F091750280818061808341
:1008F000E0917402F0917502808188608083E091BC
:100900007402F0917502808180688083E0917402A6
:10091000F091750280818F7D808300E111E0BEE05F
:10092000EB2EB1E0FB2E22E031E03A832983A9814E
:10093000BA818C911296BA83A98362E00E94050164
:10094000F80180810E5F1F4F61E00E94050129813F
:100950003A81E216F30659F70E94360144244A947C
:10096000F3E05F2E612C712C22242A94312C71ED3E
:10097000E72E73E0F72E05EC13E0E2E0CE2EE1E087
:10098000DE2E5801FA82E982A981BA818D919D916A
:10099000BA83A983F501819391935F01D6012D91CB
:1009A0003D916D013327F901E255FF4F8491F90123
:1009B000E656FF4F9490F901EA57FF4F8490882044
:1009C00009F4A7C081110E94AE00E82DF0E0EE0FFF
:1009D000FF1FE859FF4FA591B491EC919E2291E041
:1009E00080E009F490E0E981FA8132979083818375
:1009F000EDEDF3E029813A81E217F30709F0C4CF66
:100A000089EB93E09A838983FC01D8018D919D91B4
:100A10008D01892B09F480C0D7018D919C91892B80
:100A200009F07AC021E030E031832083329632E051
:100A3000E30EF11C81ED93E08017910731F780916F
:100A4000D1039091D203009709F069C02091D3039C
:100A50003091D403232B91F483E10E94B0012FE75E
:100A600030E0DC010E947B08A30192010E94FE0796
:100A70003093B8032093B70381E090E02091D50331
:100A80003091D603232BC1F42091D7033091D803A2
:100A9000232B91F483E10E94B0012FEF30E0DC01C1
:100AA0000E947B08A30192010E94FE073093B603C7
:100AB0002093B50381E090E02091D9033091DA03CF
:100AC000232B81F52091DB033091DC03232B51F59F
:100AD00083E10E94B0012FEF30E0DC010E947B082F
:100AE000A30192010E94FE0730930F0120930E0193
:100AF0000E948C000E94360180E090E0892B09F46E
:100B000036CF0E945402882309F431CF0E9400009E
:100B10002ECF90E080E067CF1182108287CF90E0E7
:100B200080E0ACCF892B41F710E000E0A981BA81C9
:100B30008D919D91BA83A983892B11F18091000138
:100B4000909101018017910709F07EC08091B30355
:100B50009091B403019660E170E00E946108909367
:100B6000B4038093B303809100019091010197FD3C
:100B700007C0833091050CF46CC006970CF46EC06E
:100B80000F5F1F4F0630110589F6E7EAF3E0FA839D
:100B9000E9832BE933E038872F8386E592E09E8353
:100BA0008D83A5E1B3E0BC83AB831A861986E98106
:100BB000FA8100811181AF81B8850D931D93B887AB
:100BC000AF83ED81FE8180813296FE83ED83E090DC
:100BD0009903F0909A030E94B00126E02E9DF00147
:100BE0002F9DF00D1124A985BA85EA0FFB1FEE0F8A
:100BF000FF1FEB5EFC4F91838083EFEFF2E0AB8150
:100C0000BC818D919C911197819391931C9625E1C4
:100C100033E02E173F07A9F78AE090E0EFEFF2E00C
:100C200030E020E028173907F4F4408151816281D7
:100C300073816417750724F471836083538342833F
:100C40002F5F3F4F3296EECF1093010100930001CA
:100C50008ACF0E948C000E94360192CF0E949F0092
:100C60000E940D03F8CF0197C9F6A0910903B09136
:100C70000A032FE730E00E947B08A30192010E9443
:100C8000FE07A981BA812D933D93BA83A9830217E8
:100C9000130709F46EC0C090B703D090B8034601A3
:100CA0000D2C000CAA08BB08D194C194D1080D2CBE
:100CB000000CEE08FF08C814D904EA04FB048CF405
:100CC0008C189D08AE08BF0841F00E94A607A50138
:100CD00094010E94FE074B015C01C80CD91CEA1C60
:100CE000FB1CE981FA8132970190F081E02DA09000
:100CF000B503B090B60391012A193B092E9FC0019C
:100D00002F9F900D3E9F900D1124B1010E9461080C
:100D10009B01EE0FFF1FEA5AFE4F40815181A49EB6
:100D2000C001A59E900DB49E900D1124B1010E94AA
:100D30006108620F731FAB014C0D5D1D1C141D0477
:100D40000CF057C04038510514F04FE750E0809147
:100D50000001909101018230910509F467C00CF007
:100D600050C0009709F45BC06AE070E0019709F495
:100D700058C0E985FA853196FA87E9872B813C814D
:100D80002E5F3F4F3C832B83369709F010CF809125
:100D9000990390919A0301966BE070E00E946108BC
:100DA00090939A03809399030E94C5014B015C01C3
:100DB00085E0C82ED12CE12CF12C0E94C5016819C8
:100DC00079098A099B09683E734081059105A8F35A
:100DD00031E0C31AD108E108F10888EE880E83E0FB
:100DE000981EA11CB11CC114D104E104F10429F71F
:100DF00083CECD2809F4ABCF57FFA9CF50E040E018
:100E0000A6CF8430910511F1A4F0059709F0B1CF78
:100E1000E985FA85EE0FFF1FEE5CFE4F10C067E01C
:100E200070E089859A850E94F702A3CF61E070E0A7
:100E3000F8CFE985FA85EE0FFF1FE65BFE4F608174
:100E400071818091B3039091B403EDCFE985FA8568
:100E5000EE0FFF1FE25CFE4FF2CFE2E6F2E01382FC
:100E6000128288EE93E0A0E0B0E084839583A683AD
:100E7000B78384E291E09183808385EC90E095874D
:100E8000848784EC90E09787868780EC90E0918B54
:100E9000808B81EC90E0938B828B82EC90E0958B41
:100EA000848B86EC90E0978B868B118E128E138E3E
:100EB000148E08958F929F92AF92BF92CF92DF923D
:100EC000EF92FF92CF93DF93EC01688179818A8161
:100ED0009B81611571058105910521F464E279ED2D
:100EE0008BE597E02DE133EF41E050E00E94FE07F3
:100EF00049015A019B01AC01A7EAB1E40E941D0817
:100F00006B017C01ACEEB4EFA50194010E942B08AB
:100F1000C60ED71EE81EF91EF7FE06C081E0C81AED
:100F2000D108E10880E8F80AC882D982EA82FB8207
:100F3000C701B6019F77DF91CF91FF90EF90DF90CF
:100F4000CF90BF90AF909F908F9008958F929F9277
:100F5000AF92BF92CF92DF92EF92FF9260911C010D
:100F600070911D0180911E0190911F016115710505
:100F70008105910521F464E279ED8BE597E02DE19F
:100F800033EF41E050E00E94FE0749015A019B0106
:100F9000AC01A7EAB1E40E941D086B017C01ACEE34
:100FA000B4EFA50194010E942B08C60ED71EE81EBF
:100FB000F91EF7FE06C081E0C81AD108E10880E8F2
:100FC000F80AC0921C01D0921D01E0921E01F0921D
:100FD0001F01C701B6019F77FF90EF90DF90CF9080
:100FE000BF90AF909F908F90089560931C01709375
:100FF0001D0180931E0190931F010895052E97FBFC
:101000001EF400940E94150857FD07D00E94300876
:1010100007FC03D04EF40C9415085095409530957C
:1010200021953F4F4F4F5F4F089590958095709554
:1010300061957F4F8F4F9F4F08950E945208A59F43
:10104000900DB49F900DA49F800D911D11240895C3
:10105000B7FF0C941D080E941D08821B930B089576
:10106000A1E21A2EAA1BBB1BFD010DC0AA1FBB1FAC
:10107000EE1FFF1FA217B307E407F50720F0A21B1E
:10108000B30BE40BF50B661F771F881F991F1A948B
:1010900069F760957095809590959B01AC01BD01B5
:1010A000CF010895A29FB001B39FC001A39F700D0F
:1010B000811D1124911DB29F700D811D1124911D60
:1010C000089597FB072E16F4009407D077FD09D0FA
:1010D0000E94820807FC05D03EF4909581959F4FB1
:1010E0000895709561957F4F0895EE0FFF1F05904D
:1010F000F491E02D09940E945208B7FF0895821BD5
:10110000930B0895AA1BBB1B51E107C0AA1FBB1F6D
:10111000A617B70710F0A61BB70B881F991F5A9583
:10112000A9F780959095BC01CD010895F894FFCF63
:10113000FFFF02000400070008000C000D000A0079
:1011400003000500060009000A000B000100000072
:10115000000000008A02EA011702D70248022602B4
:101160003A02720073007400750076007700660022
:10117000670068006900700071001A001B001C0005
:101180001D001E001F00000012001D0025002A0087
:101190002F00330037003A003D003F00420044007A
:1011A0004600470049004B004C004E004F005000E5
:1011B0005200530054005500560057005800590083
:1011C0005A005B005B005C005D005E005F005F003A
:1011D00060006100610062006300630064006400FD
:1011E00065006600660067006700680068006900C7
:1011F00069006A006A006B006B006C006C006C0098
:101200006D006D006E006E006F006F006F0070006B
:101210007000700071007100720072007200730043
:10122000730073007400740074007500750075001D
:1012300076007600760076007700770077007800F9
:1012400078007800780079007900790079007A00D8
:101250007A007A007B007B007B007B007C007C00B6
:101260007C007C007C007D007D007D007D007E0098
:101270007E007E007E007F007F007F007F007F0079
:101280008000800080000E000F001000110012008E
:02129000130049
:00000001FF
