:100000000C9462000C948A000C948A000C948A0070
:100010000C948A000C948A000C948A000C948A0038
:100020000C948A000C948A000C948A000C948A0028
:100030000C948A000C948A000C948A000C948A0018
:100040000C9470030C948A000C94E0030C94BA0393
:100050000C948A000C948A000C948A000C948A00F8
:100060000C948A000C948A000000000023002600F3
:10007000290000000000240027002A0000000000E2
:10008000250028002B0004040404040404040202D4
:100090000202020203030303030301020408102007
:1000A0004080010204081020010204081020000012
:1000B0000008000201000003040700000000000027
:1000C0000000120411241FBECFEFD8E0DEBFCDBF69
:1000D00011E0A0E0B1E0E4EBF0E102C005900D9288
:1000E000AA35B107D9F722E0AAE5B1E001C01D9217
:1000F000A83EB207E1F710E0C2E6D0E004C02197C5
:10010000FE010E945208C136D107C9F70E944F0470
:100110000C9458080C940000ECEDF2E08AE090E0BA
:10012000918380839383828395838483978386835B
:1001300091878087938782870895ECEDF2E01182A2
:1001400010821382128215821482178216821186FF
:1001500010861386128608958AE090E0E9E2F2E0C4
:1001600030E020E0281739077CF44081518162811A
:1001700073816417750724F471836083538342830A
:100180002F5F3F4F3296EECF019741F780913302B8
:10019000909134020895880F991FFC01EB55FE4F92
:1001A000A9E2B2E0808191818D939D933C9682E09B
:1001B000AF33B807B9F70895833081F028F4813060
:1001C00099F08230A9F008958730A9F08830C9F0FD
:1001D0008430B1F4809180008F7D03C080918000D5
:1001E0008F7780938000089584B58F7784BD0895BC
:1001F00084B58F7DFBCF8091B0008F778093B00066
:1002000008958091B0008F7DF9CF1F93CF93DF9336
:10021000282F30E0F901E255FF4F8491F901E656AD
:10022000FF4FD491F901EA57FF4FC491CC23A9F0B5
:10023000162F81110E94DC00EC2FF0E0EE0FFF1F63
:10024000E458FF4FA591B4918FB7F894EC91111138
:1002500008C0D095DE23DC938FBFDF91CF911F9133
:100260000895DE2BF8CFCF93DF9390E0FC01E656A4
:10027000FF4F24918A579F4FFC0184918823D1F02E
:1002800090E0880F991FFC01EE58FF4FA591B491A3
:10029000FC01E458FF4FC591D491623071F49FB7CF
:1002A000F8943C91822F809583238C93E8812E2BA8
:1002B00028839FBFDF91CF9108958FB7F894EC9179
:1002C0002E2B2C938FBFF6CFCF92DF92EF92FF921F
:1002D0000F931F93CF93DF938CEDE82E82E0F82EDF
:1002E0009CE0C92E91E0D92EF701C191D1917F01F7
:1002F000F601019111916F0161E0802F0E9433019D
:10030000209729F460E0802F0E94050129C0CF3F8B
:10031000D10511F461E0F7CFF801FF27E255FF4F57
:10032000E491E33089F140F4E130B1F0E23039F1A9
:10033000C038D1057CF7E6CFE73081F1E830B1F184
:10034000E430B1F780918000806280938000D09388
:100350008B00C0938A0004C084B5806884BDC7BD8B
:1003600088EEE81682E0F80609F0BECFDF91CF9163
:100370001F910F91FF90EF90DF90CF90089584B57B
:10038000806284BDC8BDECCF80918000806880937E
:100390008000D0938900C0938800E2CF8091B000A4
:1003A00080688093B000C093B300DACF8091B00032
:1003B00080628093B000C093B400D2CF8E3008F03A
:1003C0008E508770806480937C0080917A00806476
:1003D00080937A0080917A0086FDFCCF809178002E
:1003E0009091790008953FB7F8948091A101909180
:1003F000A201A091A301B091A40126B5A89B05C0BC
:100400002F3F19F00196A11DB11D3FBFBA2FA92F93
:10041000982F8827BC01CD01620F711D811D911D90
:1004200042E0660F771F881F991F4A95D1F70895FC
:100430008F929F92AF92BF92CF92DF92EF92FF92F4
:100440000E94F3014B015C018AE0C82ED12CE12C03
:10045000F12C0E94F301681979098A099B09683E09
:10046000734081059105A8F321E0C21AD108E10883
:10047000F10888EE880E83E0981EA11CB11CC114FF
:10048000D104E104F10429F7FF90EF90DF90CF90C1
:10049000BF90AF909F908F900895AF92BF92CF92F0
:1004A000DF92EF92FF920F931F93CF93DF936C0134
:1004B0007B018B01040F151FEB015E01AE18BF0815
:1004C000C017D10759F06991D601ED91FC910190C7
:1004D000F081E02DC6010995892B79F7C501DF91DF
:1004E000CF911F910F91FF90EF90DF90CF90BF9031
:1004F000AF900895FC01538D448D252F30E0842F5B
:1005000090E0821B930B541710F0CF96089501973B
:100510000895FC01918D828D981761F0A28DAE0F28
:10052000BF2FB11D5D968C91928D9F5F9F73928FAF
:1005300090E008958FEF9FEF0895FC01918D828DDB
:10054000981731F0828DE80FF11D858D90E00895A8
:100550008FEF9FEF0895FC01918D228D892F90E000
:10056000805C9F4F821B91098F73992708958FE3B9
:1005700092E00E94AB0221E0892B09F420E0822F57
:10058000089580E090E0892B29F00E94B702811144
:100590000C9400000895FC01A48DA80FB92FB11D83
:1005A000A35ABF4F2C91848D90E001968F739927A9
:1005B000848FA689B7892C93A089B1898C91837087
:1005C00080648C93938D848D981306C00288F38980
:1005D000E02D80818F7D80830895EF92FF920F93AD
:1005E0001F93CF93DF93EC0181E0888F9B8D8C8DDF
:1005F00098131AC0E889F989808185FF15C09FB7D3
:10060000F894EE89FF896083E889F9898081837095
:10061000806480839FBF81E090E0DF91CF911F9144
:100620000F91FF90EF900895F62E0B8D10E00F5F65
:100630001F4F0F731127E02E8C8D8E110CC00FB63B
:1006400007FCFACFE889F989808185FFF5CFCE01D3
:100650000E94CB02F1CFEB8DEC0FFD2FF11DE35A81
:10066000FF4FF0829FB7F8940B8FEA89FB89808156
:100670008062CFCFCF93DF93EC01888D8823B9F0D0
:10068000AA89BB89E889F9898C9185FD03C080819D
:1006900086FD0DC00FB607FCF7CF8C9185FFF2CF1A
:1006A000808185FFEDCFCE010E94CB02E9CFDF91A3
:1006B000CF910895CF93DF93D62FC42F806B682FEF
:1006C0008FE392E00E94ED026D2F8FE392E00E9493
:1006D000ED026C2F8FE392E0DF91CF910C94ED024D
:1006E0001F920F920FB60F9211242F933F938F9367
:1006F0009F93AF93BF9380919D0190919E01A09194
:100700009F01B091A00130919C0123E0230F2D3770
:1007100058F50196A11DB11D20939C0180939D0168
:1007200090939E01A0939F01B093A0018091A1019D
:100730009091A201A091A301B091A4010196A11DE5
:10074000B11D8093A1019093A201A093A301B09346
:10075000A401BF91AF919F918F913F912F910F90E5
:100760000FBE0F901F90189526E8230F0296A11D2B
:10077000B11DD2CF1F920F920FB60F9211242F935B
:100780003F934F935F936F937F938F939F93AF9319
:10079000BF93EF93FF938FE392E00E94CB02FF9110
:1007A000EF91BF91AF919F918F917F916F915F91E9
:1007B0004F913F912F910F900FBE0F901F90189562
:1007C0001F920F920FB60F9211242F938F939F9326
:1007D000EF93FF93E0914F02F09150028081E091FE
:1007E0005502F091560282FD1BC090818091580203
:1007F0008F5F8F7320915902821741F0E091580268
:10080000F0E0E15CFD4F958F80935802FF91EF91EE
:100810009F918F912F910F900FBE0F901F90189561
:100820008081F4CFEFE3F2E01382128288EE93E04E
:10083000A0E0B0E084839583A683B7838CE491E045
:100840009183808385EC90E09587848784EC90E0A9
:100850009787868780EC90E0918B808B81EC90E08D
:10086000938B828B82EC90E0958B848B86EC90E06E
:10087000978B868B118E128E138E148EECEDF2E018
:100880008AE090E09183808393838283958384833D
:10089000978386839187808793878287089578944A
:1008A00084B5826084BD84B5816084BD85B5826075
:1008B00085BD85B5816085BD80916E008160809326
:1008C0006E0010928100809181008260809381008F
:1008D000809181008160809381008091800081609F
:1008E000809380008091B10084608093B1008091FA
:1008F000B00081608093B00080917A008460809322
:100900007A0080917A00826080937A0080917A00E8
:10091000816080937A0080917A00806880937A0069
:100920001092C100E0914F02F091500282E080836A
:10093000E0914B02F0914C021082E0914D02F09157
:100940004E028FE3808310925702E0915302F091A0
:10095000540286E08083E0915102F091520280813E
:1009600080618083E0915102F09152028081886021
:100970008083E0915102F0915202808180688083EF
:10098000E0915102F091520280818F7D80830CE0D2
:1009900011E0C0E0D1E08881229662E00E9433013C
:1009A000D8018C910E5F1F4F61E00E943301B1E0CE
:1009B000CC30DB0781F70E94640122242A9463E093
:1009C000362E412C512C40E9E42E41E0F42E04E86F
:1009D00011E050E0A52E51E0B52E6801E7018991A4
:1009E0009991F601819391936F01D5012D913D91DC
:1009F0005D013327F901E255FF4F8491F901E65675
:100A0000FF4F9490F901EA57FF4F8490882009F432
:100A10007EC081110E94DC00E82DF0E0EE0FFF1F88
:100A2000E859FF4FA591B491EC919E2291E080E0AE
:100A300009F490E0FE01329790838183B1E0CC39D4
:100A4000DB0709F0CCCFC8E7D1E0FE01D8018D91DA
:100A50009D918D01892B09F45DC0D7018D919C91E9
:100A6000892B09F057C081E090E091838083329612
:100A700092E0E90EF11CA1E000391A0739F710E005
:100A800000E089919991892B01F1809176019091F3
:100A900077018017910709F040C08091740190910F
:100AA0007501019660E170E00E9423089093750142
:100AB0008093740180917601909177018330910544
:100AC00009F443C07CF597FF3BC00F5F1F4F063012
:100AD0001105B9F6C0917601D0917701C230D105E8
:100AE00009F460C10CF053C0209709F4B1C02197FC
:100AF00009F408C1E0E0F0E0EF2B09F464CF0E94B4
:100B0000B702882309F45FCF0E9400005CCF90E019
:100B100080E090CF11821082AACF109377010093CA
:100B20007601C8CF8430910519F1059771F60E94BE
:100B30009D00E0917401F0917501EE0FFF1F11C04F
:100B40000E948C000E946401C0CF0E949D00809191
:100B500074019091750186309105A4F7880F991F53
:100B6000FC01E452FD4F8AE090E091838083EACF5C
:100B70000E949D00E0917401F0917501EE0FFF1F3E
:100B8000E452FD4FAAE0B0E0B183A083DBCFC430D4
:100B9000D10509F4B0C10CF455C1259709F0AACFCD
:100BA00038E6E32E31E0F32E4CE5A42E41E0B42EDE
:100BB0005CE3C52E51E0D52E08E111E0D0E0C0E0A5
:100BC000F701819091907F01D5018D929D925D01F9
:100BD000F6018081F2E0CF0ED11C60905A01709036
:100BE0005B010E94DE0126E0269DF001279DF00DAD
:100BF0001124EC0FFD1FEE0FFF1FEB55FE4F9183ED
:100C00008083CE010E94CB000E94AC002FE730E031
:100C1000DC010E943708A20191010E94D307F7016D
:100C20003297318320838216930651F0D8016D915B
:100C30007C91A90180917401909175010E945A03E1
:100C400021960E5F1F4FC630D10509F0B9CF51C1B3
:100C5000B8E6CB2EB1E0DB2E1CE5A12E11E0B12EC3
:100C60000CE3E02E01E0F02ED6018D909D906D01F9
:100C7000F501819291925F01D7018C91B2E0EB0E68
:100C8000F11C00915A0110915B010E94DE0126E0E7
:100C9000209FF001219FF00D1124EC0FFD1FEE0F9E
:100CA000FF1FEB55FE4F91838083CE010E94CB0046
:100CB0000E94AC002FE730E0DC010E943708A2015F
:100CC00091010E94D307F601329731832083821667
:100CD000930631F0A90167E070E0CE010E945A034B
:100CE0002196C630D10509F0BFCFC80101966BE04F
:100CF00070E00E94230890935B0180935A010E9448
:100D00001802F8CE78E6C72E71E0D72EECE5AE2EAD
:100D1000E1E0BE2EFCE3EF2EF1E0FF2ED0E0C0E0DC
:100D2000D6018D909D906D01F501819291925F01A8
:100D3000D7018C91B2E0EB0EF11C00915A01109199
:100D40005B010E94DE0126E0209FF001219FF00D53
:100D50001124EC0FFD1FEE0FFF1FEB55FE4F91838B
:100D60008083CE010E94CB000E94AC002FE730E0D0
:100D7000DC010E943708A20191010E94D307F6010D
:100D80003297318320838216930631F0A9016AE0FD
:100D900070E0CE010E945A032196C630D10509F0B9
:100DA000BFCFA3CF38E6C32E31E0D32E4CE5A42E1F
:100DB00041E0B42E5CE3E52E51E0F52ED0E0C0E03A
:100DC000D6018D909D906D01F501819291925F0108
:100DD000D7018C91B2E0EB0EF11C00915A011091F9
:100DE0005B010E94DE0126E0209FF001219FF00DB3
:100DF0001124EC0FFD1FEE0FFF1FEB55FE4F9183EB
:100E00008083CE010E94CB000E94AC002FE730E02F
:100E1000DC010E943708A20191010E94D307F6016C
:100E20003297318320838216930631F0A90161E065
:100E300070E0CE010E945A032196C630D10509F018
:100E4000BFCF53CFB8E6CB2EB1E0DB2ECCE5AC2E36
:100E5000C1E0BC2EDCE3ED2ED1E0FD2E00E311E07D
:100E6000D0E0C0E0D6018D909D906D01F50181929A
:100E700091925F01D7018C91B2E0EB0EF11C609072
:100E80005A0170905B010E94DE0126E0269DF00170
:100E9000279DF00D1124EC0FFD1FEE0FFF1FEB55EA
:100EA000FE4F91838083CE010E94CB000E94AC0054
:100EB0002FE730E0DC010E943708A20191010E9477
:100EC000D307F6013297318320838216930651F0BF
:100ED000D8016D917C91A901809174019091750167
:100EE0000E945A0321960E5F1F4FC630D10509F0AC
:100EF000B9CFC301FBCE78E6E72E71E0F72EECE523
:100F0000AE2EE1E0BE2EFCE3CF2EF1E0DF2E04E2B8
:100F100011E0D0E0C0E0F701819091907F01D50110
:100F20008D929D925D01F6018081F2E0CF0ED11C81
:100F300060905A0170905B010E94DE0126E0269DC0
:100F4000F001279DF00D1124EC0FFD1FEE0FFF1F88
:100F5000EB55FE4F91838083CE010E94CB000E940F
:100F6000AC002FE730E0DC010E943708A2019101BC
:100F70000E94D307F70132973183208382169306AC
:100F800051F0D8016D917C91A901809174019091EB
:100F900075010E945A0321960E5F1F4FC630D1057E
:100FA00009F0B9CFA6CF052E97FB1EF400940E943E
:100FB000EA0757FD07D00E94F20707FC03D04EF462
:100FC0000C94EA0750954095309521953F4F4F4F2F
:100FD0005F4F089590958095709561957F4F8F4FE5
:100FE0009F4F0895A1E21A2EAA1BBB1BFD010DC045
:100FF000AA1FBB1FEE1FFF1FA217B307E407F507C9
:1010000020F0A21BB30BE40BF50B661F771F881FA4
:10101000991F1A9469F760957095809590959B013A
:10102000AC01BD01CF010895A29FB001B39FC001E3
:10103000A39F700D811D1124911DB29F700D811D04
:101040001124911D089597FB072E16F4009407D0E4
:1010500077FD09D00E943E0807FC05D03EF490952C
:1010600081959F4F0895709561957F4F08950E94D7
:101070001408B7FF0895821B930B0895AA1BBB1B8E
:1010800051E107C0AA1FBB1FA617B70710F0A61B88
:10109000B70B881F991F5A95A9F780959095BC01A9
:1010A000CD010895EE0FFF1F0590F491E02D0994F6
:0410B000F894FFCFE2
:1010B40002000400070008000C000D0003000500F6
:1010C400060009000A000B0072007300740075002A
:1010D40076007700660067006800690070007100A0
:1010E4001A001B001C001D001E001F000E000F0034
:1010F400100011001200130000000000ED024D0268
:0A1104007A023A03AB0289029D0251
:00000001FF
