:100000000C9462000C948A000C948A000C948A0070
:100010000C948A000C948A000C948A000C948A0038
:100020000C948A000C948A000C948A000C948A0028
:100030000C948A000C948A000C948A000C948A0018
:100040000C940A040C948A000C947A040C945404C2
:100050000C948A000C948A000C948A000C948A00F8
:100060000C948A000C948A000000000024002700F1
:100070002A0000000000250028002B0000000000DE
:1000800023002600290004040404040404040202DA
:100090000202020203030303030301020408102007
:1000A0004080010204081020010204081020000012
:1000B0000008000201000003040700000000000027
:1000C00000007A0711241FBECFEFD8E0DEBFCDBFFE
:1000D00012E0A0E0B1E0EAECF1E102C005900D927F
:1000E000A635B107D9F723E0A6E5B2E001C01D921D
:1000F000AA3EB207E1F710E0C2E6D0E004C02197C3
:10010000FE010E94C208C136D107C9F70E94AC04A3
:100110000C94E3080C940000809126019091270133
:10012000EEEDF3E0918380839383828395838483D0
:100130009783868391878087938782870895EEEDE2
:10014000F3E01182108213821282158214821782C8
:10015000168211861086138612860895CF93DF9338
:10016000A6ECB3E0EAEBF3E0C2EDD3E081E090E08F
:100170002D913D91232B79F028813981232B59F43E
:10018000918380833296229623E0A23DB20781F7C5
:10019000DF91CF91089511821082F4CF833081F0E6
:1001A00028F4813099F08230A9F008958730A9F0C1
:1001B0008830C9F08430B1F4809180008F7D03C015
:1001C000809180008F7780938000089584B58F7729
:1001D00084BD089584B58F7DFBCF8091B0008F776B
:1001E0008093B00008958091B0008F7DF9CFCF92B9
:1001F000DF92EF92FF920F931F93CF93DF93C2EDA5
:10020000D3E096ECE92E93E0F92E0AE111E0899112
:100210009991F701819391937F01F8012191319197
:100220008F013327F901E255FF4F8491F901E6561A
:10023000FF4FD490F901EA57FF4FC490CC2019F139
:1002400081110E94CE00EC2DF0E0EE0FFF1FE4586C
:10025000FF4FA591B491EC91DE2291E080E009F48A
:1002600090E0FE01329790838183F3E0CE3DDF077B
:1002700009F0CDCFDF91CF911F910F91FF90EF90BB
:10028000DF90CF90089590E080E0EBCF1F93CF9365
:10029000DF93282F30E0F901E255FF4F8491F901F7
:1002A000E656FF4FD491F901EA57FF4FC491CC2392
:1002B000A9F0162F81110E94CE00EC2FF0E0EE0F76
:1002C000FF1FEE58FF4FA591B4918FB7F894EC91B2
:1002D000111108C0D095DE23DC938FBFDF91CF9141
:1002E0001F910895DE2BF8CFCF93DF9390E0FC01B0
:1002F000E656FF4F24918A579F4FFC018491882333
:10030000D1F090E0880F991FFC01E859FF4FA591AB
:10031000B491FC01EE58FF4FC591D491623071F455
:100320009FB7F8943C91822F809583238C93E8812A
:100330002E2B28839FBFDF91CF9108958FB7F8941C
:10034000EC912E2B2C938FBFF6CFCF92DF92EF92B2
:10035000FF920F931F93CF93DF938EEDE82E83E0F0
:10036000F82E98E2C92E91E0D92EF701C191D191D2
:100370007F01F601019111916F0161E0802F0E94D0
:100380007401209729F460E0802F0E94460129C063
:10039000CF3FD10511F461E0F7CFF801FF27E25517
:1003A000FF4FE491E33089F140F4E130B1F0E23005
:1003B00039F1C038D1057CF7E6CFE73081F1E8307C
:1003C000B1F1E430B1F780918000806280938000C9
:1003D000D0938B00C0938A0004C084B5806884BD2C
:1003E000C7BD8AEEE81683E0F80609F0BECFDF91BC
:1003F000CF911F910F91FF90EF90DF90CF900895D4
:1004000084B5806284BDC8BDECCF809180008068D7
:1004100080938000D0938900C0938800E2CF8091C0
:10042000B00080688093B000C093B300DACF8091B1
:10043000B00080628093B000C093B400D2CF8E3001
:1004400008F08E508770806480937C0080917A00E1
:10045000806480937A0080917A0086FDFCCF809141
:1004600078009091790008953FB7F8948091B60391
:100470009091B703A091B803B091B90326B5A89B9A
:1004800005C02F3F19F00196A11DB11D3FBFBA2F26
:10049000A92F982F8827BC01CD01620F711D811DE6
:1004A000911D42E0660F771F881F991F4A95D1F76B
:1004B00008958F929F92AF92BF92CF92DF92EF9268
:1004C000FF924B015C010E9434026B017C010E948F
:1004D00034026C197D098E099F09683E73408105BD
:1004E0009105A8F321E0821A9108A108B10888EECD
:1004F000C80E83E0D81EE11CF11C81149104A104F4
:10050000B10429F7FF90EF90DF90CF90BF90AF90AC
:100510009F908F900895AF92BF92CF92DF92EF920B
:10052000FF920F931F93CF93DF936C017B018B019D
:10053000040F151FEB015E01AE18BF08C017D107ED
:1005400059F06991D601ED91FC910190F081E02D77
:10055000C6010995892B79F7C501DF91CF911F91CC
:100560000F91FF90EF90DF90CF90BF90AF900895E4
:10057000FC01538D448D252F30E0842F90E0821BA9
:10058000930B541710F0CF96089501970895FC012E
:10059000918D828D981761F0A28DAE0FBF2FB11D86
:1005A0005D968C91928D9F5F9F73928F90E00895DE
:1005B0008FEF9FEF0895FC01918D828D981731F098
:1005C000828DE80FF11D858D90E008958FEF9FEFEC
:1005D0000895FC01918D228D892F90E0805C9F4FC2
:1005E000821B91098F739927089586E592E00E94F6
:1005F000E90221E0892B09F420E0822F089580E0B0
:1006000090E0892B29F00E94F50281110C940000E2
:100610000895FC01A48DA80FB92FB11DA35ABF4F97
:100620002C91848D90E001968F739927848FA689F1
:10063000B7892C93A089B1898C91837080648C9345
:10064000938D848D981306C00288F389E02D8081F4
:100650008F7D80830895EF92FF920F931F93CF9326
:10066000DF93EC0181E0888F9B8D8C8D98131AC0ED
:10067000E889F989808185FF15C09FB7F894EE89D4
:10068000FF896083E889F989808183708064808331
:100690009FBF81E090E0DF91CF911F910F91FF907C
:1006A000EF900895F62E0B8D10E00F5F1F4F0F7324
:1006B0001127E02E8C8D8E110CC00FB607FCFACFDF
:1006C000E889F989808185FFF5CFCE010E94090371
:1006D000F1CFEB8DEC0FFD2FF11DE35AFF4FF082B0
:1006E0009FB7F8940B8FEA89FB8980818062CFCF16
:1006F000CF93DF93EC01888D8823B9F0AA89BB8959
:10070000E889F9898C9185FD03C0808186FD0DC043
:100710000FB607FCF7CF8C9185FFF2CF808185FF64
:10072000EDCFCE010E940903E9CFDF91CF9108956B
:10073000CF93DF93D62FC42F806B682F86E592E08E
:100740000E942B036D2F86E592E00E942B036C2FF5
:1007500086E592E0DF91CF910C942B03E091AB03FF
:10076000F091AC03E630F1055CF4EE0FFF1FE252AE
:10077000FC4F8091260190912701918380830895F9
:100780003697EA30F105D0F4E453FC4F809126010E
:10079000909127010C94C208D603DF03E403E90318
:1007A000F203EE03F703FC03050401049093DF0357
:1007B0008093DE039093E9038093E8030895909378
:1007C000E1038093E003F6CF9093E3038093E20389
:1007D000F1CF9093E5038093E403ECCF9093DF0394
:1007E0008093DE039093E7038093E603E3CF909337
:1007F000E1038093E003F6CF9093E3038093E20359
:10080000F1CF9093DF038093DE039093E503809311
:10081000E403E8CF1F920F920FB60F9211242F938B
:100820003F938F939F93AF93BF938091B203909127
:10083000B303A091B403B091B5033091B10323E0A9
:10084000230F2D3758F50196A11DB11D2093B1033B
:100850008093B2039093B303A093B403B093B50312
:100860008091B6039091B703A091B803B091B903FA
:100870000196A11DB11D8093B6039093B703A09379
:10088000B803B093B903BF91AF919F918F913F91FE
:100890002F910F900FBE0F901F90189526E8230FF1
:1008A0000296A11DB11DD2CF1F920F920FB60F92CB
:1008B00011242F933F934F935F936F937F938F9365
:1008C0009F93AF93BF93EF93FF9386E592E00E94CF
:1008D0000903FF91EF91BF91AF919F918F917F910C
:1008E0006F915F914F913F912F910F900FBE0F909D
:1008F0001F9018951F920F920FB60F9211242F93ED
:100900008F939F93EF93FF93E0916602F0916702BC
:100910008081E0916C02F0916D0282FD1BC090819C
:1009200080916F028F5F8F7320917002821741F068
:10093000E0916F02F0E0EA5AFD4F958F80936F02CD
:10094000FF91EF919F918F912F910F900FBE0F907C
:100950001F9018958081F4CFCF93DF93CDB7DEB78A
:100960002A970FB6F894DEBF0FBECDBF789484B53A
:10097000826084BD84B5816084BD85B5826085BD9B
:1009800085B5816085BD80916E00816080936E0029
:10099000109281008091810082608093810080911B
:1009A00081008160809381008091800081608093CC
:1009B00080008091B10084608093B1008091B0008C
:1009C00081608093B00080917A00846080937A0087
:1009D00080917A00826080937A0080917A008160B1
:1009E00080937A0080917A00806880937A001092D8
:1009F000C10068EE73E080E090E00E945902E0914F
:100A00006602F091670282E08083E0916202F091D9
:100A100063021082E0916402F09165028FE38083AB
:100A200010926E02E0916A02F0916B0286E0808380
:100A3000E0916802F0916902808180618083E09199
:100A40006802F0916902808188608083E091680289
:100A5000F0916902808180688083E0916802F09162
:100A6000690280818F7D80832AE131E03A83298386
:100A700008E211E0E981FA8180813296FA83E98304
:100A800062E00E947401F80180810E5F1F4F61E0F7
:100A90000E94740129813A812652314059F70E94FF
:100AA000A5018CE091E09093F6028093F50280E03E
:100AB00091E09093F4028093F3020E94F7000E9469
:100AC000AE00E2EDF3E0FA83E9830AE412E0E981A3
:100AD000FA8181919191FA83E983892B29F461E06C
:100AE000F80180810E9446010E5F1F4F29813A81E3
:100AF0002E5D334061F768EB7BE080E090E00E9480
:100B0000590288248A94B3E09B2EA12CB12C222474
:100B10002A94312C0E94F7000E94AE008091D203EB
:100B20009091D303009709F063C02091D4033091D2
:100B3000D503232B91F483E10E941F022FE730E0BD
:100B4000DC010E94C808A50194010E944B08309363
:100B5000B0032093AF0381E090E02091D603309161
:100B6000D703232BC1F42091D8033091D903232B31
:100B700091F483E10E941F022FEF30E0DC010E941C
:100B8000C808A50194010E944B083093AE0320933E
:100B9000AD0381E090E02091DA033091DB03232B59
:100BA00051F52091DC033091DD03232B21F583E106
:100BB0000E941F022FEF30E0DC010E94C808A5014F
:100BC00094010E944B0830932701209326010E9434
:100BD0008C000E94A50180E090E0892B09F49ACF57
:100BE0000E94F502882309F495CF0E94000092CF5D
:100BF00090E080E0B2CF892B71F70AEB13E01A8204
:100C00001982F801819191918F01892B21F18091B5
:100C100018019091190129813A818217930709F0EF
:100C200080C08091AB039091AC03019660E170E0CD
:100C30000E94AE089093AC038093AB03809118019F
:100C40009091190197FD07C0833091050CF470C095
:100C500006970CF472C0E981FA813196FA83E98330
:100C6000369779F62FE933E03A83298383E993E0D5
:100C700098878F83EDE0F3E0FC83EB832AE432E096
:100C80003E832D831A861986E981FA8100811181BC
:100C9000EF81F88501931193F887EF83ED81FE8151
:100CA00080813296FE83ED83E0909103F090920371
:100CB0000E941F0226E02E9DF0012F9DF00D1124B1
:100CC00029853A85E20FF31FEE0FFF1FE35FFC4F0C
:100CD00091838083E7EFF2E0AB81BC818D919C91A1
:100CE0001197819391931C968DE093E08E179F0747
:100CF000A9F78AE090E0E7EFF2E030E020E0281783
:100D0000390704F540815181628173816417750749
:100D100024F471836083538342832F5F3F4F329665
:100D2000EECF89819A81909319018093180186CF23
:100D30000E948C000E94A5018ECF0E949F000E94FD
:100D4000AE03F8CF0197B9F6A0910103B091020369
:100D50002FE730E00E94C808A50194010E944B08CB
:100D6000E981FA8121933193FA83E983021713070A
:100D700009F46AC0C090AF03D090B00326010D2CD7
:100D8000000C66087708D194C194D1080D2C000C92
:100D9000EE08FF08C414D504E604F7048CF44C18DC
:100DA0005D086E087F0841F00E94F307A3019201DD
:100DB0000E944B082B013C01C40CD51CE61CF71CFF
:100DC000E981FA8132970190F081E02D0091AD0325
:100DD0001091AE039101201B310B2E9FC0012F9F5C
:100DE000900D3E9F900D1124B1010E94AE089B0111
:100DF000EE0FFF1FE65BFE4F40815181049FC00153
:100E0000059F900D149F900D1124B1010E94AE0812
:100E1000620F731FAB014C0D5D1D1C141D04BCF54E
:100E20004038510514F04FE750E08091180190913F
:100E300019018230910509F443C084F50097C9F186
:100E40006AE070E00197B9F129853A852F5F3F4F3D
:100E50003A8729878B819C8102969C838B832630DD
:100E6000310509F011CF8091910390919203019681
:100E70006BE070E00E94AE08909392038093910320
:100E800065E070E080E090E00E945902A4CECD2899
:100E900061F257FFCACF50E040E0C7CF84309105E0
:100EA00021F18CF0059781F6E985FA85EE0FFF1F99
:100EB00015C067E070E089859A850E949803C4CFC9
:100EC00061E070E0F8CF8091F5029091F6022985FB
:100ED0003A85220F331F820F931FFC0160817181BD
:100EE0008091AB039091AC03E8CF8091F302909195
:100EF000F402EDCFE6E5F2E01382128288EE93E091
:100F0000A0E0B0E084839583A683B7838CE391E06F
:100F10009183808385EC90E09587848784EC90E0D2
:100F20009787868780EC90E0918B808B81EC90E0B6
:100F3000938B828B82EC90E0958B848B86EC90E097
:100F4000978B868B118E128E138E148E08958F922E
:100F50009F92AF92BF92CF92DF92EF92FF92CF9388
:100F6000DF93EC01688179818A819B81611571052C
:100F70008105910521F464E279ED8BE597E02DE19F
:100F800033EF41E050E00E944B0849015A019B01B8
:100F9000AC01A7EAB1E40E946A086B017C01ACEEE7
:100FA000B4EFA50194010E947808C60ED71EE81E72
:100FB000F91EF7FE06C081E0C81AD108E10880E8F2
:100FC000F80AC882D982EA82FB82C701B6019F77FC
:100FD000DF91CF91FF90EF90DF90CF90BF90AF90D7
:100FE0009F908F9008958F929F92AF92BF92CF92D1
:100FF000DF92EF92FF926091340170913501809100
:10100000360190913701611571058105910521F433
:1010100064E279ED8BE597E02DE133EF41E050E0BC
:101020000E944B0849015A019B01AC01A7EAB1E4B7
:101030000E946A086B017C01ACEEB4EFA50194013B
:101040000E947808C60ED71EE81EF91EF7FE06C0DD
:1010500081E0C81AD108E10880E8F80AC09234019A
:10106000D0923501E0923601F0923701C701B60106
:101070009F77FF90EF90DF90CF90BF90AF909F90C1
:101080008F900895609334017093350180933601F9
:10109000909337010895052E97FB1EF400940E944B
:1010A000620857FD07D00E947D0807FC03D04EF46C
:1010B0000C94620850954095309521953F4F4F4FC5
:1010C0005F4F089590958095709561957F4F8F4FF4
:1010D0009F4F08950E949F08A59F900DB49F900D6B
:1010E000A49F800D911D11240895B7FF0C946A08E8
:1010F0000E946A08821B930B0895A1E21A2EAA1B74
:10110000BB1BFD010DC0AA1FBB1FEE1FFF1FA217B7
:10111000B307E407F50720F0A21BB30BE40BF50BB4
:10112000661F771F881F991F1A9469F7609570953D
:10113000809590959B01AC01BD01CF010895A29FC0
:10114000B001B39FC001A39F700D811D1124911D9B
:10115000B29F700D811D1124911D089597FB072EDC
:1011600016F4009407D077FD09D00E94CF0807FC41
:1011700005D03EF4909581959F4F089570956195A7
:101180007F4F0895EE0FFF1F0590F491E02D099415
:101190000E949F08B7FF0895821B930B0895AA1B16
:1011A000BB1B51E107C0AA1FBB1FA617B70710F052
:1011B000A61BB70B881F991F5A95A9F78095909584
:0A11C000BC01CD010895F894FFCFA3
:1011CA007200730074007500760077001A001B0025
:1011DA001C001D001E001F00FFFF02000400070084
:1011EA0008000C000D000A000300050006000900B3
:1011FA000A000B0001000000000000002B038B0214
:10120A00B8027803E902C702DB02000012001D00DF
:10121A0025002A002F00330037003A003D003F0026
:10122A00420044004600470049004B004C004E0073
:10123A004F0050005200530054005500560057000A
:10124A00580059005A005B005B005C005D005E00BC
:10125A005F005F006000610061006200630063007C
:10126A006400640065006600660067006700680045
:10127A006800690069006A006A006B006B006C0014
:10128A006C006C006D006D006E006E006F006F00E8
:10129A006F007000700070007100710072007200BF
:1012AA007200730073007300740074007400750098
:1012BA007500750076007600760076007700770074
:1012CA007700780078007800780079007900790052
:1012DA0079007A007A007A007B007B007B007B0031
:1012EA007C007C007C007C007C007D007D007D0011
:1012FA007D007E007E007E007E007F007F007F00F2
:10130A007F007F008000800080000E000F00100028
:06131A0011001200130097
:00000001FF
